{
  "contractName": "SimpleBank",
  "abi": [
    {
      "anonymous": false,
      "inputs": [],
      "name": "LogDepositMade",
      "type": "event"
    },
    {
      "anonymous": false,
      "inputs": [],
      "name": "LogEnrolled",
      "type": "event"
    },
    {
      "anonymous": false,
      "inputs": [],
      "name": "LogWithdrawal",
      "type": "event"
    },
    {
      "payable": true,
      "stateMutability": "payable",
      "type": "fallback"
    },
    {
      "constant": false,
      "inputs": [],
      "name": "getBalance",
      "outputs": [
        {
          "internalType": "uint256",
          "name": "",
          "type": "uint256"
        }
      ],
      "payable": false,
      "stateMutability": "nonpayable",
      "type": "function"
    },
    {
      "constant": false,
      "inputs": [],
      "name": "enroll",
      "outputs": [
        {
          "internalType": "bool",
          "name": "",
          "type": "bool"
        }
      ],
      "payable": false,
      "stateMutability": "nonpayable",
      "type": "function"
    },
    {
      "constant": false,
      "inputs": [],
      "name": "deposit",
      "outputs": [
        {
          "internalType": "uint256",
          "name": "",
          "type": "uint256"
        }
      ],
      "payable": false,
      "stateMutability": "nonpayable",
      "type": "function"
    },
    {
      "constant": false,
      "inputs": [
        {
          "internalType": "uint256",
          "name": "withdrawAmount",
          "type": "uint256"
        }
      ],
      "name": "withdraw",
      "outputs": [
        {
          "internalType": "uint256",
          "name": "",
          "type": "uint256"
        }
      ],
      "payable": false,
      "stateMutability": "nonpayable",
      "type": "function"
    }
  ],
  "bytecode": "0x608060405233600260006101000a81548173ffffffffffffffffffffffffffffffffffffffff021916908373ffffffffffffffffffffffffffffffffffffffff16021790555034801561005157600080fd5b50610163806100616000396000f3fe60806040526004361061003f5760003560e01c806312065fe0146100445780632e1a7d4d1461006f578063d0e30db0146100be578063e65f2a7e146100e9575b600080fd5b34801561005057600080fd5b50610059610118565b6040518082815260200191505060405180910390f35b34801561007b57600080fd5b506100a86004803603602081101561009257600080fd5b810190808035906020019092919050505061011d565b6040518082815260200191505060405180910390f35b3480156100ca57600080fd5b506100d3610124565b6040518082815260200191505060405180910390f35b3480156100f557600080fd5b506100fe610129565b604051808215151515815260200191505060405180910390f35b600090565b6000919050565b600090565b60009056fea265627a7a723158209977a7e24064953a4ace0c71f82757a31b422c6843cd55789c8948ff753054d564736f6c63430005100032",
  "source": "/*\n * This exercise has been updated to use Solidity version 0.8.5\n * See the latest Solidity updates at\n * https://solidity.readthedocs.io/en/latest/080-breaking-changes.html\n */\n// SPDX-License-Identifier: MIT\npragma solidity >=0.5.16 <0.9.0;\n\ncontract SimpleBank {\n\n    /* State variables\n     */\n    \n    \n    // Fill in the visibility keyword. \n    // Hint: We want to protect our users balance from other contracts\n    mapping (address => uint) balances ;\n    \n    // Fill in the visibility keyword\n    // Hint: We want to create a getter function and allow contracts to be able\n    //       to see if a user is enrolled.\n    mapping (address => bool) enrolled;\n\n    // Let's make sure everyone knows who owns the bank, yes, fill in the\n    // appropriate visilibility keyword\n    address owner = msg.sender;\n    \n    /* Events - publicize actions to external listeners\n     */\n    \n    // Add an argument for this event, an accountAddress\n    event LogEnrolled();\n\n    // Add 2 arguments for this event, an accountAddress and an amount\n    event LogDepositMade();\n\n    // Create an event called LogWithdrawal\n    // Hint: it should take 3 arguments: an accountAddress, withdrawAmount and a newBalance \n    event LogWithdrawal();\n\n    /* Functions\n     */\n\n    // Fallback function - Called if other functions don't match call or\n    // sent ether without data\n    // Typically, called when invalid data is sent\n    // Added so ether sent to this contract is reverted if the contract fails\n    // otherwise, the sender's money is transferred to contract\n    function () external payable {\n        revert();\n    }\n\n    /// @notice Get balance\n    /// @return The balance of the user\n    function getBalance() public returns (uint) {\n      // 1. A SPECIAL KEYWORD prevents function from editing state variables;\n      //    allows function to run locally/off blockchain\n      // 2. Get the balance of the sender of this transaction\n    }\n\n    /// @notice Enroll a customer with the bank\n    /// @return The users enrolled status\n    // Emit the appropriate event\n    function enroll() public returns (bool){\n      // 1. enroll of the sender of this transaction\n    }\n\n    /// @notice Deposit ether into bank\n    /// @return The balance of the user after the deposit is made\n    function deposit() public returns (uint) {\n      // 1. Add the appropriate keyword so that this function can receive ether\n    \n      // 2. Users should be enrolled before they can make deposits\n\n      // 3. Add the amount to the user's balance. Hint: the amount can be\n      //    accessed from of the global variable `msg`\n\n      // 4. Emit the appropriate event associated with this function\n\n      // 5. return the balance of sndr of this transaction\n    }\n\n    /// @notice Withdraw ether from bank\n    /// @dev This does not return any excess ether sent to it\n    /// @param withdrawAmount amount you want to withdraw\n    /// @return The balance remaining for the user\n    function withdraw(uint withdrawAmount) public returns (uint) {\n      // If the sender's balance is at least the amount they want to withdraw,\n      // Subtract the amount from the sender's balance, and try to send that amount of ether\n      // to the user attempting to withdraw. \n      // return the user's balance.\n\n      // 1. Use a require expression to guard/ensure sender has enough funds\n\n      // 2. Transfer Eth to the sender and decrement the withdrawal amount from\n      //    sender's balance\n\n      // 3. Emit the appropriate event for this message\n    }\n}\n",
  "sourcePath": "/Users/dipeshpoudel/Documents/GitHub/simple-bank-exercise-Dpoudel18/contracts/SimpleBank.sol",
  "compiler": {
    "name": "solc",
    "version": "0.5.16+commit.9c3226ce.Emscripten.clang"
  },
  "schemaVersion": "3.4.3",
  "updatedAt": "2021-11-22T00:23:42.062Z",
  "devdoc": {
    "methods": {
      "deposit()": {
        "return": "The balance of the user after the deposit is made"
      },
      "enroll()": {
        "return": "The users enrolled status"
      },
      "getBalance()": {
        "return": "The balance of the user"
      },
      "withdraw(uint256)": {
        "details": "This does not return any excess ether sent to it",
        "params": {
          "withdrawAmount": "amount you want to withdraw"
        },
        "return": "The balance remaining for the user"
      }
    }
  },
  "userdoc": {
    "methods": {
      "deposit()": {
        "notice": "Deposit ether into bank"
      },
      "enroll()": {
        "notice": "Enroll a customer with the bank"
      },
      "getBalance()": {
        "notice": "Get balance"
      },
      "withdraw(uint256)": {
        "notice": "Withdraw ether from bank"
      }
    }
  }
}